{
  "address": "0x80BCD141FDdB0250a38cDd13E160fFdAeAf11ecf",
  "abi": [
    {
      "inputs": [
        {
          "internalType": "string",
          "name": "licensePlate",
          "type": "string"
        },
        {
          "internalType": "uint256",
          "name": "mileage",
          "type": "uint256"
        }
      ],
      "name": "addCar",
      "outputs": [],
      "stateMutability": "nonpayable",
      "type": "function"
    },
    {
      "inputs": [
        {
          "internalType": "string",
          "name": "licensePlate",
          "type": "string"
        },
        {
          "internalType": "address",
          "name": "newOwner",
          "type": "address"
        }
      ],
      "name": "changeOwner",
      "outputs": [],
      "stateMutability": "nonpayable",
      "type": "function"
    },
    {
      "inputs": [
        {
          "internalType": "string",
          "name": "licensePlate",
          "type": "string"
        }
      ],
      "name": "getCarByLicencePlate",
      "outputs": [
        {
          "internalType": "string",
          "name": "",
          "type": "string"
        },
        {
          "internalType": "address",
          "name": "",
          "type": "address"
        },
        {
          "internalType": "uint256",
          "name": "",
          "type": "uint256"
        }
      ],
      "stateMutability": "view",
      "type": "function"
    },
    {
      "inputs": [
        {
          "internalType": "string",
          "name": "licensePlate",
          "type": "string"
        }
      ],
      "name": "getLatestMileage",
      "outputs": [
        {
          "internalType": "uint256",
          "name": "",
          "type": "uint256"
        }
      ],
      "stateMutability": "view",
      "type": "function"
    },
    {
      "inputs": [
        {
          "internalType": "string",
          "name": "licensePlate",
          "type": "string"
        }
      ],
      "name": "getMileageRecord",
      "outputs": [
        {
          "internalType": "uint256[]",
          "name": "",
          "type": "uint256[]"
        }
      ],
      "stateMutability": "view",
      "type": "function"
    },
    {
      "inputs": [
        {
          "internalType": "string",
          "name": "licensePlate",
          "type": "string"
        }
      ],
      "name": "getOwners",
      "outputs": [
        {
          "internalType": "address[]",
          "name": "",
          "type": "address[]"
        }
      ],
      "stateMutability": "view",
      "type": "function"
    },
    {
      "inputs": [
        {
          "internalType": "string",
          "name": "licensePlate",
          "type": "string"
        },
        {
          "internalType": "uint256",
          "name": "mileage",
          "type": "uint256"
        }
      ],
      "name": "updateMileage",
      "outputs": [],
      "stateMutability": "nonpayable",
      "type": "function"
    }
  ],
  "transactionHash": "0x2636aa956f92cce8a3d08bfda8748f4ba57f4c92cbc39038265ceb5699ec13d7",
  "args": [],
  "numDeployments": 1,
  "solcInputHash": "55eb8f9bbade8cf70738c01132cb423b",
  "bytecode": "0x608060405234801561001057600080fd5b50611832806100206000396000f3fe608060405234801561001057600080fd5b506004361061007d5760003560e01c8063a8630b381161005b578063a8630b38146100fe578063ca90229914610130578063d8f9d1441461014c578063dbe90617146101685761007d565b8063492e9e88146100825780636057d21b146100b2578063965ac0c5146100e2575b600080fd5b61009c60048036038101906100979190610e18565b610198565b6040516100a99190610e7a565b60405180910390f35b6100cc60048036038101906100c79190610e18565b61031e565b6040516100d99190610f85565b60405180910390f35b6100fc60048036038101906100f79190610fd3565b61047a565b005b61011860048036038101906101139190610e18565b6106b1565b604051610127939291906110bd565b60405180910390f35b61014a60048036038101906101459190610fd3565b610884565b005b61016660048036038101906101619190611127565b610a05565b005b610182600480360381019061017d9190610e18565b610b98565b60405161018f9190611241565b60405180910390f35b60008073ffffffffffffffffffffffffffffffffffffffff166000836040516101c1919061129f565b908152602001604051809103902060010160009054906101000a900473ffffffffffffffffffffffffffffffffffffffff1673ffffffffffffffffffffffffffffffffffffffff1603610249576040517f08c379a000000000000000000000000000000000000000000000000000000000815260040161024090611302565b60405180910390fd5b600060018360405161025b919061129f565b90815260200160405180910390208054806020026020016040519081016040528092919081815260200182805480156102b357602002820191906000526020600020905b81548152602001906001019080831161029f575b5050505050905060008151036102ed576000836040516102d3919061129f565b908152602001604051809103902060020154915050610319565b80600182516102fc9190611351565b8151811061030d5761030c611385565b5b60200260200101519150505b919050565b6060600073ffffffffffffffffffffffffffffffffffffffff16600083604051610348919061129f565b908152602001604051809103902060010160009054906101000a900473ffffffffffffffffffffffffffffffffffffffff1673ffffffffffffffffffffffffffffffffffffffff16036103d0576040517f08c379a00000000000000000000000000000000000000000000000000000000081526004016103c790611302565b60405180910390fd5b6002826040516103e0919061129f565b908152602001604051809103902080548060200260200160405190810160405280929190818152602001828054801561046e57602002820191906000526020600020905b8160009054906101000a900473ffffffffffffffffffffffffffffffffffffffff1673ffffffffffffffffffffffffffffffffffffffff1681526020019060010190808311610424575b50505050509050919050565b600073ffffffffffffffffffffffffffffffffffffffff166000836040516104a2919061129f565b908152602001604051809103902060010160009054906101000a900473ffffffffffffffffffffffffffffffffffffffff1673ffffffffffffffffffffffffffffffffffffffff161461052a576040517f08c379a000000000000000000000000000000000000000000000000000000000815260040161052190611400565b60405180910390fd5b600060405180606001604052808481526020013373ffffffffffffffffffffffffffffffffffffffff16815260200183815250905080600084604051610570919061129f565b90815260200160405180910390206000820151816000019081610593919061162c565b5060208201518160010160006101000a81548173ffffffffffffffffffffffffffffffffffffffff021916908373ffffffffffffffffffffffffffffffffffffffff160217905550604082015181600201559050506001836040516105f8919061129f565b908152602001604051809103902082908060018154018082558091505060019003906000526020600020016000909190919091505560028360405161063d919061129f565b9081526020016040518091039020339080600181540180825580915050600190039060005260206000200160009091909190916101000a81548173ffffffffffffffffffffffffffffffffffffffff021916908373ffffffffffffffffffffffffffffffffffffffff160217905550505050565b6060600080600073ffffffffffffffffffffffffffffffffffffffff166000856040516106de919061129f565b908152602001604051809103902060010160009054906101000a900473ffffffffffffffffffffffffffffffffffffffff1673ffffffffffffffffffffffffffffffffffffffff1603610766576040517f08c379a000000000000000000000000000000000000000000000000000000000815260040161075d90611302565b60405180910390fd5b600084604051610776919061129f565b9081526020016040518091039020600001600085604051610797919061129f565b908152602001604051809103902060010160009054906101000a900473ffffffffffffffffffffffffffffffffffffffff166000866040516107d9919061129f565b9081526020016040518091039020600201548280546107f79061144f565b80601f01602080910402602001604051908101604052809291908181526020018280546108239061144f565b80156108705780601f1061084557610100808354040283529160200191610870565b820191906000526020600020905b81548152906001019060200180831161085357829003601f168201915b505050505092509250925092509193909250565b3373ffffffffffffffffffffffffffffffffffffffff166000836040516108ab919061129f565b908152602001604051809103902060010160009054906101000a900473ffffffffffffffffffffffffffffffffffffffff1673ffffffffffffffffffffffffffffffffffffffff1614610933576040517f08c379a000000000000000000000000000000000000000000000000000000000815260040161092a9061174a565b60405180910390fd5b600082604051610943919061129f565b9081526020016040518091039020600201548111610996576040517f08c379a000000000000000000000000000000000000000000000000000000000815260040161098d906117dc565b60405180910390fd5b806000836040516109a7919061129f565b9081526020016040518091039020600201819055506001826040516109cc919061129f565b90815260200160405180910390208190806001815401808255809150506001900390600052602060002001600090919091909150555050565b600073ffffffffffffffffffffffffffffffffffffffff16600083604051610a2d919061129f565b908152602001604051809103902060010160009054906101000a900473ffffffffffffffffffffffffffffffffffffffff1673ffffffffffffffffffffffffffffffffffffffff1603610ab5576040517f08c379a0000000000000000000000000000000000000000000000000000000008152600401610aac90611302565b60405180910390fd5b80600083604051610ac6919061129f565b908152602001604051809103902060010160006101000a81548173ffffffffffffffffffffffffffffffffffffffff021916908373ffffffffffffffffffffffffffffffffffffffff160217905550600282604051610b25919061129f565b9081526020016040518091039020819080600181540180825580915050600190039060005260206000200160009091909190916101000a81548173ffffffffffffffffffffffffffffffffffffffff021916908373ffffffffffffffffffffffffffffffffffffffff1602179055505050565b6060600073ffffffffffffffffffffffffffffffffffffffff16600083604051610bc2919061129f565b908152602001604051809103902060010160009054906101000a900473ffffffffffffffffffffffffffffffffffffffff1673ffffffffffffffffffffffffffffffffffffffff1603610c4a576040517f08c379a0000000000000000000000000000000000000000000000000000000008152600401610c4190611302565b60405180910390fd5b600182604051610c5a919061129f565b9081526020016040518091039020805480602002602001604051908101604052809291908181526020018280548015610cb257602002820191906000526020600020905b815481526020019060010190808311610c9e575b50505050509050919050565b6000604051905090565b600080fd5b600080fd5b600080fd5b600080fd5b6000601f19601f8301169050919050565b7f4e487b7100000000000000000000000000000000000000000000000000000000600052604160045260246000fd5b610d2582610cdc565b810181811067ffffffffffffffff82111715610d4457610d43610ced565b5b80604052505050565b6000610d57610cbe565b9050610d638282610d1c565b919050565b600067ffffffffffffffff821115610d8357610d82610ced565b5b610d8c82610cdc565b9050602081019050919050565b82818337600083830152505050565b6000610dbb610db684610d68565b610d4d565b905082815260208101848484011115610dd757610dd6610cd7565b5b610de2848285610d99565b509392505050565b600082601f830112610dff57610dfe610cd2565b5b8135610e0f848260208601610da8565b91505092915050565b600060208284031215610e2e57610e2d610cc8565b5b600082013567ffffffffffffffff811115610e4c57610e4b610ccd565b5b610e5884828501610dea565b91505092915050565b6000819050919050565b610e7481610e61565b82525050565b6000602082019050610e8f6000830184610e6b565b92915050565b600081519050919050565b600082825260208201905092915050565b6000819050602082019050919050565b600073ffffffffffffffffffffffffffffffffffffffff82169050919050565b6000610eec82610ec1565b9050919050565b610efc81610ee1565b82525050565b6000610f0e8383610ef3565b60208301905092915050565b6000602082019050919050565b6000610f3282610e95565b610f3c8185610ea0565b9350610f4783610eb1565b8060005b83811015610f78578151610f5f8882610f02565b9750610f6a83610f1a565b925050600181019050610f4b565b5085935050505092915050565b60006020820190508181036000830152610f9f8184610f27565b905092915050565b610fb081610e61565b8114610fbb57600080fd5b50565b600081359050610fcd81610fa7565b92915050565b60008060408385031215610fea57610fe9610cc8565b5b600083013567ffffffffffffffff81111561100857611007610ccd565b5b61101485828601610dea565b925050602061102585828601610fbe565b9150509250929050565b600081519050919050565b600082825260208201905092915050565b60005b8381101561106957808201518184015260208101905061104e565b60008484015250505050565b60006110808261102f565b61108a818561103a565b935061109a81856020860161104b565b6110a381610cdc565b840191505092915050565b6110b781610ee1565b82525050565b600060608201905081810360008301526110d78186611075565b90506110e660208301856110ae565b6110f36040830184610e6b565b949350505050565b61110481610ee1565b811461110f57600080fd5b50565b600081359050611121816110fb565b92915050565b6000806040838503121561113e5761113d610cc8565b5b600083013567ffffffffffffffff81111561115c5761115b610ccd565b5b61116885828601610dea565b925050602061117985828601611112565b9150509250929050565b600081519050919050565b600082825260208201905092915050565b6000819050602082019050919050565b6111b881610e61565b82525050565b60006111ca83836111af565b60208301905092915050565b6000602082019050919050565b60006111ee82611183565b6111f8818561118e565b93506112038361119f565b8060005b8381101561123457815161121b88826111be565b9750611226836111d6565b925050600181019050611207565b5085935050505092915050565b6000602082019050818103600083015261125b81846111e3565b905092915050565b600081905092915050565b60006112798261102f565b6112838185611263565b935061129381856020860161104b565b80840191505092915050565b60006112ab828461126e565b915081905092915050565b7f436172206e6f7420666f756e6400000000000000000000000000000000000000600082015250565b60006112ec600d8361103a565b91506112f7826112b6565b602082019050919050565b6000602082019050818103600083015261131b816112df565b9050919050565b7f4e487b7100000000000000000000000000000000000000000000000000000000600052601160045260246000fd5b600061135c82610e61565b915061136783610e61565b925082820390508181111561137f5761137e611322565b5b92915050565b7f4e487b7100000000000000000000000000000000000000000000000000000000600052603260045260246000fd5b7f43617220616c7265616479206578697374730000000000000000000000000000600082015250565b60006113ea60128361103a565b91506113f5826113b4565b602082019050919050565b60006020820190508181036000830152611419816113dd565b9050919050565b7f4e487b7100000000000000000000000000000000000000000000000000000000600052602260045260246000fd5b6000600282049050600182168061146757607f821691505b60208210810361147a57611479611420565b5b50919050565b60008190508160005260206000209050919050565b60006020601f8301049050919050565b600082821b905092915050565b6000600883026114e27fffffffffffffffffffffffffffffffffffffffffffffffffffffffffffffffff826114a5565b6114ec86836114a5565b95508019841693508086168417925050509392505050565b6000819050919050565b600061152961152461151f84610e61565b611504565b610e61565b9050919050565b6000819050919050565b6115438361150e565b61155761154f82611530565b8484546114b2565b825550505050565b600090565b61156c61155f565b61157781848461153a565b505050565b5b8181101561159b57611590600082611564565b60018101905061157d565b5050565b601f8211156115e0576115b181611480565b6115ba84611495565b810160208510156115c9578190505b6115dd6115d585611495565b83018261157c565b50505b505050565b600082821c905092915050565b6000611603600019846008026115e5565b1980831691505092915050565b600061161c83836115f2565b9150826002028217905092915050565b6116358261102f565b67ffffffffffffffff81111561164e5761164d610ced565b5b611658825461144f565b61166382828561159f565b600060209050601f8311600181146116965760008415611684578287015190505b61168e8582611610565b8655506116f6565b601f1984166116a486611480565b60005b828110156116cc578489015182556001820191506020850194506020810190506116a7565b868310156116e957848901516116e5601f8916826115f2565b8355505b6001600288020188555050505b505050505050565b7f596f7520646f206e6f74206f776e207468697320636172000000000000000000600082015250565b600061173460178361103a565b915061173f826116fe565b602082019050919050565b6000602082019050818103600083015261176381611727565b9050919050565b7f4e6577206d696c65616765206d7573742062652067726561746572207468616e60008201527f2063757272656e74206d696c6561676500000000000000000000000000000000602082015250565b60006117c660308361103a565b91506117d18261176a565b604082019050919050565b600060208201905081810360008301526117f5816117b9565b905091905056fea26469706673582212204a687e46243c5156e50de7b54e46099012afe60cae3ee68c8ed3387af9c7a83d64736f6c63430008120033",
  "devdoc": {
    "kind": "dev",
    "methods": {},
    "version": 1
  },
  "userdoc": {
    "kind": "user",
    "methods": {},
    "version": 1
  },
  "storageLayout": {
    "storage": [
      {
        "astId": 13,
        "contract": "contracts/TrueMile.sol:MileChain",
        "label": "cars",
        "offset": 0,
        "slot": "0",
        "type": "t_mapping(t_string_memory_ptr,t_struct(Car)8_storage)"
      },
      {
        "astId": 18,
        "contract": "contracts/TrueMile.sol:MileChain",
        "label": "mileageRecords",
        "offset": 0,
        "slot": "1",
        "type": "t_mapping(t_string_memory_ptr,t_array(t_uint256)dyn_storage)"
      },
      {
        "astId": 23,
        "contract": "contracts/TrueMile.sol:MileChain",
        "label": "ownersRecords",
        "offset": 0,
        "slot": "2",
        "type": "t_mapping(t_string_memory_ptr,t_array(t_address)dyn_storage)"
      }
    ],
    "types": {
      "t_address": {
        "encoding": "inplace",
        "label": "address",
        "numberOfBytes": "20"
      },
      "t_array(t_address)dyn_storage": {
        "base": "t_address",
        "encoding": "dynamic_array",
        "label": "address[]",
        "numberOfBytes": "32"
      },
      "t_array(t_uint256)dyn_storage": {
        "base": "t_uint256",
        "encoding": "dynamic_array",
        "label": "uint256[]",
        "numberOfBytes": "32"
      },
      "t_mapping(t_string_memory_ptr,t_array(t_address)dyn_storage)": {
        "encoding": "mapping",
        "key": "t_string_memory_ptr",
        "label": "mapping(string => address[])",
        "numberOfBytes": "32",
        "value": "t_array(t_address)dyn_storage"
      },
      "t_mapping(t_string_memory_ptr,t_array(t_uint256)dyn_storage)": {
        "encoding": "mapping",
        "key": "t_string_memory_ptr",
        "label": "mapping(string => uint256[])",
        "numberOfBytes": "32",
        "value": "t_array(t_uint256)dyn_storage"
      },
      "t_mapping(t_string_memory_ptr,t_struct(Car)8_storage)": {
        "encoding": "mapping",
        "key": "t_string_memory_ptr",
        "label": "mapping(string => struct MileChain.Car)",
        "numberOfBytes": "32",
        "value": "t_struct(Car)8_storage"
      },
      "t_string_memory_ptr": {
        "encoding": "bytes",
        "label": "string",
        "numberOfBytes": "32"
      },
      "t_string_storage": {
        "encoding": "bytes",
        "label": "string",
        "numberOfBytes": "32"
      },
      "t_struct(Car)8_storage": {
        "encoding": "inplace",
        "label": "struct MileChain.Car",
        "members": [
          {
            "astId": 3,
            "contract": "contracts/TrueMile.sol:MileChain",
            "label": "licensePlate",
            "offset": 0,
            "slot": "0",
            "type": "t_string_storage"
          },
          {
            "astId": 5,
            "contract": "contracts/TrueMile.sol:MileChain",
            "label": "owner",
            "offset": 0,
            "slot": "1",
            "type": "t_address"
          },
          {
            "astId": 7,
            "contract": "contracts/TrueMile.sol:MileChain",
            "label": "mileage",
            "offset": 0,
            "slot": "2",
            "type": "t_uint256"
          }
        ],
        "numberOfBytes": "96"
      },
      "t_uint256": {
        "encoding": "inplace",
        "label": "uint256",
        "numberOfBytes": "32"
      }
    }
  }
}