{
  "address": "0xd1f7D0b66Ba36a07917633F18EEDff3a778be338",
  "abi": [
    {
      "inputs": [],
      "stateMutability": "nonpayable",
      "type": "constructor"
    },
    {
      "anonymous": false,
      "inputs": [
        {
          "indexed": true,
          "internalType": "address",
          "name": "oldOwner",
          "type": "address"
        },
        {
          "indexed": true,
          "internalType": "address",
          "name": "newOwner",
          "type": "address"
        }
      ],
      "name": "OwnerSet",
      "type": "event"
    },
    {
      "inputs": [
        {
          "internalType": "string",
          "name": "licensePlate",
          "type": "string"
        },
        {
          "internalType": "uint256",
          "name": "mileage",
          "type": "uint256"
        }
      ],
      "name": "addCar",
      "outputs": [],
      "stateMutability": "nonpayable",
      "type": "function"
    },
    {
      "inputs": [
        {
          "internalType": "address",
          "name": "newOwner",
          "type": "address"
        }
      ],
      "name": "changeOwner",
      "outputs": [],
      "stateMutability": "nonpayable",
      "type": "function"
    },
    {
      "inputs": [
        {
          "internalType": "string",
          "name": "licensePlate",
          "type": "string"
        },
        {
          "internalType": "address",
          "name": "newOwner",
          "type": "address"
        }
      ],
      "name": "changeOwner",
      "outputs": [],
      "stateMutability": "nonpayable",
      "type": "function"
    },
    {
      "inputs": [
        {
          "internalType": "string",
          "name": "licensePlate",
          "type": "string"
        }
      ],
      "name": "getCarByLicencePlate",
      "outputs": [
        {
          "internalType": "string",
          "name": "",
          "type": "string"
        },
        {
          "internalType": "address",
          "name": "",
          "type": "address"
        },
        {
          "internalType": "uint256",
          "name": "",
          "type": "uint256"
        }
      ],
      "stateMutability": "view",
      "type": "function"
    },
    {
      "inputs": [
        {
          "internalType": "string",
          "name": "licensePlate",
          "type": "string"
        }
      ],
      "name": "getLatestMileage",
      "outputs": [
        {
          "internalType": "uint256",
          "name": "",
          "type": "uint256"
        }
      ],
      "stateMutability": "view",
      "type": "function"
    },
    {
      "inputs": [
        {
          "internalType": "string",
          "name": "licensePlate",
          "type": "string"
        }
      ],
      "name": "getMileageRecord",
      "outputs": [
        {
          "internalType": "uint256[]",
          "name": "",
          "type": "uint256[]"
        }
      ],
      "stateMutability": "view",
      "type": "function"
    },
    {
      "inputs": [],
      "name": "getOwner",
      "outputs": [
        {
          "internalType": "address",
          "name": "",
          "type": "address"
        }
      ],
      "stateMutability": "view",
      "type": "function"
    },
    {
      "inputs": [
        {
          "internalType": "string",
          "name": "licensePlate",
          "type": "string"
        }
      ],
      "name": "getOwners",
      "outputs": [
        {
          "internalType": "address[]",
          "name": "",
          "type": "address[]"
        }
      ],
      "stateMutability": "view",
      "type": "function"
    },
    {
      "inputs": [],
      "name": "getState",
      "outputs": [
        {
          "internalType": "bool",
          "name": "",
          "type": "bool"
        }
      ],
      "stateMutability": "view",
      "type": "function"
    },
    {
      "inputs": [
        {
          "internalType": "bool",
          "name": "newState",
          "type": "bool"
        }
      ],
      "name": "setState",
      "outputs": [],
      "stateMutability": "nonpayable",
      "type": "function"
    },
    {
      "inputs": [
        {
          "internalType": "string",
          "name": "licensePlate",
          "type": "string"
        },
        {
          "internalType": "uint256",
          "name": "mileage",
          "type": "uint256"
        }
      ],
      "name": "updateMileage",
      "outputs": [],
      "stateMutability": "nonpayable",
      "type": "function"
    }
  ],
  "transactionHash": "0x60ba9410d5fc30ad5bb09dffd60a55d4d6d2d92ea4b1a8a3e05907131cece918",
  "args": [],
  "numDeployments": 2,
  "solcInputHash": "b88e283a3fcdf16057fbc8375b504add",
  "bytecode": "0x608060405234801561001057600080fd5b50336000806101000a81548173ffffffffffffffffffffffffffffffffffffffff021916908373ffffffffffffffffffffffffffffffffffffffff1602179055506001600060146101000a81548160ff02191690831515021790555060008054906101000a900473ffffffffffffffffffffffffffffffffffffffff1673ffffffffffffffffffffffffffffffffffffffff16600073ffffffffffffffffffffffffffffffffffffffff167f342827c97908e5e2f71151c08502a66d44b6f758e3ac2f1de95f02eb95f0a73560405160405180910390a3611edf806100f66000396000f3fe608060405234801561001057600080fd5b50600436106100a95760003560e01c8063a6f9dae111610071578063a6f9dae114610166578063a8630b3814610182578063ac9f0222146101b4578063ca902299146101d0578063d8f9d144146101ec578063dbe9061714610208576100a9565b80631865c57d146100ae578063492e9e88146100cc5780636057d21b146100fc578063893d20e81461012c578063965ac0c51461014a575b600080fd5b6100b6610238565b6040516100c391906111d7565b60405180910390f35b6100e660048036038101906100e1919061134c565b61024e565b6040516100f391906113ae565b60405180910390f35b6101166004803603810190610111919061134c565b610423565b60405161012391906114b9565b60405180910390f35b6101346105ce565b60405161014191906114ea565b60405180910390f35b610164600480360381019061015f9190611531565b6105f7565b005b610180600480360381019061017b91906115b9565b61087d565b005b61019c6004803603810190610197919061134c565b6109c8565b6040516101ab93929190611665565b60405180910390f35b6101ce60048036038101906101c991906116cf565b610bea565b005b6101ea60048036038101906101e59190611531565b610c95565b005b610206600480360381019061020191906116fc565b610e65565b005b610222600480360381019061021d919061134c565b611047565b60405161022f9190611816565b60405180910390f35b60008060149054906101000a900460ff16905090565b60008073ffffffffffffffffffffffffffffffffffffffff166001836040516102779190611874565b908152602001604051809103902060010160009054906101000a900473ffffffffffffffffffffffffffffffffffffffff1673ffffffffffffffffffffffffffffffffffffffff16036102ff576040517f08c379a00000000000000000000000000000000000000000000000000000000081526004016102f6906118d7565b60405180910390fd5b600060149054906101000a900460ff1661034e576040517f08c379a000000000000000000000000000000000000000000000000000000000815260040161034590611943565b60405180910390fd5b60006002836040516103609190611874565b90815260200160405180910390208054806020026020016040519081016040528092919081815260200182805480156103b857602002820191906000526020600020905b8154815260200190600101908083116103a4575b5050505050905060008151036103f2576001836040516103d89190611874565b90815260200160405180910390206002015491505061041e565b80600182516104019190611992565b81518110610412576104116119c6565b5b60200260200101519150505b919050565b6060600073ffffffffffffffffffffffffffffffffffffffff1660018360405161044d9190611874565b908152602001604051809103902060010160009054906101000a900473ffffffffffffffffffffffffffffffffffffffff1673ffffffffffffffffffffffffffffffffffffffff16036104d5576040517f08c379a00000000000000000000000000000000000000000000000000000000081526004016104cc906118d7565b60405180910390fd5b600060149054906101000a900460ff16610524576040517f08c379a000000000000000000000000000000000000000000000000000000000815260040161051b90611943565b60405180910390fd5b6003826040516105349190611874565b90815260200160405180910390208054806020026020016040519081016040528092919081815260200182805480156105c257602002820191906000526020600020905b8160009054906101000a900473ffffffffffffffffffffffffffffffffffffffff1673ffffffffffffffffffffffffffffffffffffffff1681526020019060010190808311610578575b50505050509050919050565b60008060009054906101000a900473ffffffffffffffffffffffffffffffffffffffff16905090565b600073ffffffffffffffffffffffffffffffffffffffff1660018360405161061f9190611874565b908152602001604051809103902060010160009054906101000a900473ffffffffffffffffffffffffffffffffffffffff1673ffffffffffffffffffffffffffffffffffffffff16146106a7576040517f08c379a000000000000000000000000000000000000000000000000000000000815260040161069e90611a41565b60405180910390fd5b600060149054906101000a900460ff166106f6576040517f08c379a00000000000000000000000000000000000000000000000000000000081526004016106ed90611943565b60405180910390fd5b600060405180606001604052808481526020013373ffffffffffffffffffffffffffffffffffffffff1681526020018381525090508060018460405161073c9190611874565b9081526020016040518091039020600082015181600001908161075f9190611c6d565b5060208201518160010160006101000a81548173ffffffffffffffffffffffffffffffffffffffff021916908373ffffffffffffffffffffffffffffffffffffffff160217905550604082015181600201559050506002836040516107c49190611874565b90815260200160405180910390208290806001815401808255809150506001900390600052602060002001600090919091909150556003836040516108099190611874565b9081526020016040518091039020339080600181540180825580915050600190039060005260206000200160009091909190916101000a81548173ffffffffffffffffffffffffffffffffffffffff021916908373ffffffffffffffffffffffffffffffffffffffff160217905550505050565b60008054906101000a900473ffffffffffffffffffffffffffffffffffffffff1673ffffffffffffffffffffffffffffffffffffffff163373ffffffffffffffffffffffffffffffffffffffff161461090b576040517f08c379a000000000000000000000000000000000000000000000000000000000815260040161090290611d8b565b60405180910390fd5b8073ffffffffffffffffffffffffffffffffffffffff1660008054906101000a900473ffffffffffffffffffffffffffffffffffffffff1673ffffffffffffffffffffffffffffffffffffffff167f342827c97908e5e2f71151c08502a66d44b6f758e3ac2f1de95f02eb95f0a73560405160405180910390a3806000806101000a81548173ffffffffffffffffffffffffffffffffffffffff021916908373ffffffffffffffffffffffffffffffffffffffff16021790555050565b6060600080600073ffffffffffffffffffffffffffffffffffffffff166001856040516109f59190611874565b908152602001604051809103902060010160009054906101000a900473ffffffffffffffffffffffffffffffffffffffff1673ffffffffffffffffffffffffffffffffffffffff1603610a7d576040517f08c379a0000000000000000000000000000000000000000000000000000000008152600401610a74906118d7565b60405180910390fd5b600060149054906101000a900460ff16610acc576040517f08c379a0000000000000000000000000000000000000000000000000000000008152600401610ac390611943565b60405180910390fd5b600184604051610adc9190611874565b9081526020016040518091039020600001600185604051610afd9190611874565b908152602001604051809103902060010160009054906101000a900473ffffffffffffffffffffffffffffffffffffffff16600186604051610b3f9190611874565b908152602001604051809103902060020154828054610b5d90611a90565b80601f0160208091040260200160405190810160405280929190818152602001828054610b8990611a90565b8015610bd65780601f10610bab57610100808354040283529160200191610bd6565b820191906000526020600020905b815481529060010190602001808311610bb957829003601f168201915b505050505092509250925092509193909250565b60008054906101000a900473ffffffffffffffffffffffffffffffffffffffff1673ffffffffffffffffffffffffffffffffffffffff163373ffffffffffffffffffffffffffffffffffffffff1614610c78576040517f08c379a0000000000000000000000000000000000000000000000000000000008152600401610c6f90611d8b565b60405180910390fd5b80600060146101000a81548160ff02191690831515021790555050565b3373ffffffffffffffffffffffffffffffffffffffff16600183604051610cbc9190611874565b908152602001604051809103902060010160009054906101000a900473ffffffffffffffffffffffffffffffffffffffff1673ffffffffffffffffffffffffffffffffffffffff1614610d44576040517f08c379a0000000000000000000000000000000000000000000000000000000008152600401610d3b90611df7565b60405180910390fd5b600182604051610d549190611874565b9081526020016040518091039020600201548111610da7576040517f08c379a0000000000000000000000000000000000000000000000000000000008152600401610d9e90611e89565b60405180910390fd5b600060149054906101000a900460ff16610df6576040517f08c379a0000000000000000000000000000000000000000000000000000000008152600401610ded90611943565b60405180910390fd5b80600183604051610e079190611874565b908152602001604051809103902060020181905550600282604051610e2c9190611874565b90815260200160405180910390208190806001815401808255809150506001900390600052602060002001600090919091909150555050565b600073ffffffffffffffffffffffffffffffffffffffff16600183604051610e8d9190611874565b908152602001604051809103902060010160009054906101000a900473ffffffffffffffffffffffffffffffffffffffff1673ffffffffffffffffffffffffffffffffffffffff1603610f15576040517f08c379a0000000000000000000000000000000000000000000000000000000008152600401610f0c906118d7565b60405180910390fd5b600060149054906101000a900460ff16610f64576040517f08c379a0000000000000000000000000000000000000000000000000000000008152600401610f5b90611943565b60405180910390fd5b80600183604051610f759190611874565b908152602001604051809103902060010160006101000a81548173ffffffffffffffffffffffffffffffffffffffff021916908373ffffffffffffffffffffffffffffffffffffffff160217905550600382604051610fd49190611874565b9081526020016040518091039020819080600181540180825580915050600190039060005260206000200160009091909190916101000a81548173ffffffffffffffffffffffffffffffffffffffff021916908373ffffffffffffffffffffffffffffffffffffffff1602179055505050565b6060600073ffffffffffffffffffffffffffffffffffffffff166001836040516110719190611874565b908152602001604051809103902060010160009054906101000a900473ffffffffffffffffffffffffffffffffffffffff1673ffffffffffffffffffffffffffffffffffffffff16036110f9576040517f08c379a00000000000000000000000000000000000000000000000000000000081526004016110f0906118d7565b60405180910390fd5b600060149054906101000a900460ff16611148576040517f08c379a000000000000000000000000000000000000000000000000000000000815260040161113f90611943565b60405180910390fd5b6002826040516111589190611874565b90815260200160405180910390208054806020026020016040519081016040528092919081815260200182805480156111b057602002820191906000526020600020905b81548152602001906001019080831161119c575b50505050509050919050565b60008115159050919050565b6111d1816111bc565b82525050565b60006020820190506111ec60008301846111c8565b92915050565b6000604051905090565b600080fd5b600080fd5b600080fd5b600080fd5b6000601f19601f8301169050919050565b7f4e487b7100000000000000000000000000000000000000000000000000000000600052604160045260246000fd5b61125982611210565b810181811067ffffffffffffffff8211171561127857611277611221565b5b80604052505050565b600061128b6111f2565b90506112978282611250565b919050565b600067ffffffffffffffff8211156112b7576112b6611221565b5b6112c082611210565b9050602081019050919050565b82818337600083830152505050565b60006112ef6112ea8461129c565b611281565b90508281526020810184848401111561130b5761130a61120b565b5b6113168482856112cd565b509392505050565b600082601f83011261133357611332611206565b5b81356113438482602086016112dc565b91505092915050565b600060208284031215611362576113616111fc565b5b600082013567ffffffffffffffff8111156113805761137f611201565b5b61138c8482850161131e565b91505092915050565b6000819050919050565b6113a881611395565b82525050565b60006020820190506113c3600083018461139f565b92915050565b600081519050919050565b600082825260208201905092915050565b6000819050602082019050919050565b600073ffffffffffffffffffffffffffffffffffffffff82169050919050565b6000611420826113f5565b9050919050565b61143081611415565b82525050565b60006114428383611427565b60208301905092915050565b6000602082019050919050565b6000611466826113c9565b61147081856113d4565b935061147b836113e5565b8060005b838110156114ac5781516114938882611436565b975061149e8361144e565b92505060018101905061147f565b5085935050505092915050565b600060208201905081810360008301526114d3818461145b565b905092915050565b6114e481611415565b82525050565b60006020820190506114ff60008301846114db565b92915050565b61150e81611395565b811461151957600080fd5b50565b60008135905061152b81611505565b92915050565b60008060408385031215611548576115476111fc565b5b600083013567ffffffffffffffff81111561156657611565611201565b5b6115728582860161131e565b92505060206115838582860161151c565b9150509250929050565b61159681611415565b81146115a157600080fd5b50565b6000813590506115b38161158d565b92915050565b6000602082840312156115cf576115ce6111fc565b5b60006115dd848285016115a4565b91505092915050565b600081519050919050565b600082825260208201905092915050565b60005b83811015611620578082015181840152602081019050611605565b60008484015250505050565b6000611637826115e6565b61164181856115f1565b9350611651818560208601611602565b61165a81611210565b840191505092915050565b6000606082019050818103600083015261167f818661162c565b905061168e60208301856114db565b61169b604083018461139f565b949350505050565b6116ac816111bc565b81146116b757600080fd5b50565b6000813590506116c9816116a3565b92915050565b6000602082840312156116e5576116e46111fc565b5b60006116f3848285016116ba565b91505092915050565b60008060408385031215611713576117126111fc565b5b600083013567ffffffffffffffff81111561173157611730611201565b5b61173d8582860161131e565b925050602061174e858286016115a4565b9150509250929050565b600081519050919050565b600082825260208201905092915050565b6000819050602082019050919050565b61178d81611395565b82525050565b600061179f8383611784565b60208301905092915050565b6000602082019050919050565b60006117c382611758565b6117cd8185611763565b93506117d883611774565b8060005b838110156118095781516117f08882611793565b97506117fb836117ab565b9250506001810190506117dc565b5085935050505092915050565b6000602082019050818103600083015261183081846117b8565b905092915050565b600081905092915050565b600061184e826115e6565b6118588185611838565b9350611868818560208601611602565b80840191505092915050565b60006118808284611843565b915081905092915050565b7f436172206e6f7420666f756e6400000000000000000000000000000000000000600082015250565b60006118c1600d836115f1565b91506118cc8261188b565b602082019050919050565b600060208201905081810360008301526118f0816118b4565b9050919050565b7f536d617274636f6e7472616374206f66666c696e650000000000000000000000600082015250565b600061192d6015836115f1565b9150611938826118f7565b602082019050919050565b6000602082019050818103600083015261195c81611920565b9050919050565b7f4e487b7100000000000000000000000000000000000000000000000000000000600052601160045260246000fd5b600061199d82611395565b91506119a883611395565b92508282039050818111156119c0576119bf611963565b5b92915050565b7f4e487b7100000000000000000000000000000000000000000000000000000000600052603260045260246000fd5b7f43617220616c7265616479206578697374730000000000000000000000000000600082015250565b6000611a2b6012836115f1565b9150611a36826119f5565b602082019050919050565b60006020820190508181036000830152611a5a81611a1e565b9050919050565b7f4e487b7100000000000000000000000000000000000000000000000000000000600052602260045260246000fd5b60006002820490506001821680611aa857607f821691505b602082108103611abb57611aba611a61565b5b50919050565b60008190508160005260206000209050919050565b60006020601f8301049050919050565b600082821b905092915050565b600060088302611b237fffffffffffffffffffffffffffffffffffffffffffffffffffffffffffffffff82611ae6565b611b2d8683611ae6565b95508019841693508086168417925050509392505050565b6000819050919050565b6000611b6a611b65611b6084611395565b611b45565b611395565b9050919050565b6000819050919050565b611b8483611b4f565b611b98611b9082611b71565b848454611af3565b825550505050565b600090565b611bad611ba0565b611bb8818484611b7b565b505050565b5b81811015611bdc57611bd1600082611ba5565b600181019050611bbe565b5050565b601f821115611c2157611bf281611ac1565b611bfb84611ad6565b81016020851015611c0a578190505b611c1e611c1685611ad6565b830182611bbd565b50505b505050565b600082821c905092915050565b6000611c4460001984600802611c26565b1980831691505092915050565b6000611c5d8383611c33565b9150826002028217905092915050565b611c76826115e6565b67ffffffffffffffff811115611c8f57611c8e611221565b5b611c998254611a90565b611ca4828285611be0565b600060209050601f831160018114611cd75760008415611cc5578287015190505b611ccf8582611c51565b865550611d37565b601f198416611ce586611ac1565b60005b82811015611d0d57848901518255600182019150602085019450602081019050611ce8565b86831015611d2a5784890151611d26601f891682611c33565b8355505b6001600288020188555050505b505050505050565b7f43616c6c6572206973206e6f74206f776e657200000000000000000000000000600082015250565b6000611d756013836115f1565b9150611d8082611d3f565b602082019050919050565b60006020820190508181036000830152611da481611d68565b9050919050565b7f596f7520646f206e6f74206f776e207468697320636172000000000000000000600082015250565b6000611de16017836115f1565b9150611dec82611dab565b602082019050919050565b60006020820190508181036000830152611e1081611dd4565b9050919050565b7f4e6577206d696c65616765206d7573742062652067726561746572207468616e60008201527f2063757272656e74206d696c6561676500000000000000000000000000000000602082015250565b6000611e736030836115f1565b9150611e7e82611e17565b604082019050919050565b60006020820190508181036000830152611ea281611e66565b905091905056fea26469706673582212204c0b404163c36e9896e009d496fee12dca72f407d889c1fcdeb76deef91b873564736f6c63430008120033",
  "devdoc": {
    "kind": "dev",
    "methods": {},
    "version": 1
  },
  "userdoc": {
    "kind": "user",
    "methods": {},
    "version": 1
  },
  "storageLayout": {
    "storage": [
      {
        "astId": 3,
        "contract": "contracts/MileChain.sol:MileChain",
        "label": "owner",
        "offset": 0,
        "slot": "0",
        "type": "t_address"
      },
      {
        "astId": 5,
        "contract": "contracts/MileChain.sol:MileChain",
        "label": "state",
        "offset": 20,
        "slot": "0",
        "type": "t_bool"
      },
      {
        "astId": 17,
        "contract": "contracts/MileChain.sol:MileChain",
        "label": "cars",
        "offset": 0,
        "slot": "1",
        "type": "t_mapping(t_string_memory_ptr,t_struct(Car)12_storage)"
      },
      {
        "astId": 22,
        "contract": "contracts/MileChain.sol:MileChain",
        "label": "mileageRecords",
        "offset": 0,
        "slot": "2",
        "type": "t_mapping(t_string_memory_ptr,t_array(t_uint256)dyn_storage)"
      },
      {
        "astId": 27,
        "contract": "contracts/MileChain.sol:MileChain",
        "label": "ownersRecords",
        "offset": 0,
        "slot": "3",
        "type": "t_mapping(t_string_memory_ptr,t_array(t_address)dyn_storage)"
      }
    ],
    "types": {
      "t_address": {
        "encoding": "inplace",
        "label": "address",
        "numberOfBytes": "20"
      },
      "t_array(t_address)dyn_storage": {
        "base": "t_address",
        "encoding": "dynamic_array",
        "label": "address[]",
        "numberOfBytes": "32"
      },
      "t_array(t_uint256)dyn_storage": {
        "base": "t_uint256",
        "encoding": "dynamic_array",
        "label": "uint256[]",
        "numberOfBytes": "32"
      },
      "t_bool": {
        "encoding": "inplace",
        "label": "bool",
        "numberOfBytes": "1"
      },
      "t_mapping(t_string_memory_ptr,t_array(t_address)dyn_storage)": {
        "encoding": "mapping",
        "key": "t_string_memory_ptr",
        "label": "mapping(string => address[])",
        "numberOfBytes": "32",
        "value": "t_array(t_address)dyn_storage"
      },
      "t_mapping(t_string_memory_ptr,t_array(t_uint256)dyn_storage)": {
        "encoding": "mapping",
        "key": "t_string_memory_ptr",
        "label": "mapping(string => uint256[])",
        "numberOfBytes": "32",
        "value": "t_array(t_uint256)dyn_storage"
      },
      "t_mapping(t_string_memory_ptr,t_struct(Car)12_storage)": {
        "encoding": "mapping",
        "key": "t_string_memory_ptr",
        "label": "mapping(string => struct MileChain.Car)",
        "numberOfBytes": "32",
        "value": "t_struct(Car)12_storage"
      },
      "t_string_memory_ptr": {
        "encoding": "bytes",
        "label": "string",
        "numberOfBytes": "32"
      },
      "t_string_storage": {
        "encoding": "bytes",
        "label": "string",
        "numberOfBytes": "32"
      },
      "t_struct(Car)12_storage": {
        "encoding": "inplace",
        "label": "struct MileChain.Car",
        "members": [
          {
            "astId": 7,
            "contract": "contracts/MileChain.sol:MileChain",
            "label": "licensePlate",
            "offset": 0,
            "slot": "0",
            "type": "t_string_storage"
          },
          {
            "astId": 9,
            "contract": "contracts/MileChain.sol:MileChain",
            "label": "owner",
            "offset": 0,
            "slot": "1",
            "type": "t_address"
          },
          {
            "astId": 11,
            "contract": "contracts/MileChain.sol:MileChain",
            "label": "mileage",
            "offset": 0,
            "slot": "2",
            "type": "t_uint256"
          }
        ],
        "numberOfBytes": "96"
      },
      "t_uint256": {
        "encoding": "inplace",
        "label": "uint256",
        "numberOfBytes": "32"
      }
    }
  }
}