{
  "address": "0x2AAeAE131f267CA9422a19e7A9fc871Ccb2b9976",
  "abi": [
    {
      "inputs": [
        {
          "internalType": "string",
          "name": "licensePlate",
          "type": "string"
        },
        {
          "internalType": "uint256",
          "name": "mileage",
          "type": "uint256"
        }
      ],
      "name": "addCar",
      "outputs": [],
      "stateMutability": "nonpayable",
      "type": "function"
    },
    {
      "inputs": [
        {
          "internalType": "string",
          "name": "licensePlate",
          "type": "string"
        },
        {
          "internalType": "address",
          "name": "newOwner",
          "type": "address"
        }
      ],
      "name": "changeOwner",
      "outputs": [],
      "stateMutability": "nonpayable",
      "type": "function"
    },
    {
      "inputs": [
        {
          "internalType": "string",
          "name": "licensePlate",
          "type": "string"
        }
      ],
      "name": "getCarByLicencePlate",
      "outputs": [
        {
          "internalType": "string",
          "name": "",
          "type": "string"
        },
        {
          "internalType": "address",
          "name": "",
          "type": "address"
        },
        {
          "internalType": "uint256",
          "name": "",
          "type": "uint256"
        }
      ],
      "stateMutability": "view",
      "type": "function"
    },
    {
      "inputs": [
        {
          "internalType": "address",
          "name": "owner",
          "type": "address"
        }
      ],
      "name": "getCarsByOwner",
      "outputs": [
        {
          "components": [
            {
              "internalType": "string",
              "name": "licensePlate",
              "type": "string"
            },
            {
              "internalType": "address",
              "name": "owner",
              "type": "address"
            },
            {
              "internalType": "uint256",
              "name": "mileage",
              "type": "uint256"
            }
          ],
          "internalType": "struct TrueMile.Car[]",
          "name": "",
          "type": "tuple[]"
        }
      ],
      "stateMutability": "view",
      "type": "function"
    },
    {
      "inputs": [
        {
          "internalType": "string",
          "name": "licensePlate",
          "type": "string"
        }
      ],
      "name": "getLatestMileage",
      "outputs": [
        {
          "internalType": "uint256",
          "name": "",
          "type": "uint256"
        }
      ],
      "stateMutability": "view",
      "type": "function"
    },
    {
      "inputs": [
        {
          "internalType": "string",
          "name": "licensePlate",
          "type": "string"
        }
      ],
      "name": "getMileageRecord",
      "outputs": [
        {
          "internalType": "uint256[]",
          "name": "",
          "type": "uint256[]"
        }
      ],
      "stateMutability": "view",
      "type": "function"
    },
    {
      "inputs": [
        {
          "internalType": "string",
          "name": "licensePlate",
          "type": "string"
        }
      ],
      "name": "getOwners",
      "outputs": [
        {
          "internalType": "address[]",
          "name": "",
          "type": "address[]"
        }
      ],
      "stateMutability": "view",
      "type": "function"
    },
    {
      "inputs": [
        {
          "internalType": "string",
          "name": "licensePlate",
          "type": "string"
        },
        {
          "internalType": "uint256",
          "name": "mileage",
          "type": "uint256"
        }
      ],
      "name": "updateMileage",
      "outputs": [],
      "stateMutability": "nonpayable",
      "type": "function"
    }
  ],
  "transactionHash": "0x60840a0c85b6976c4c12a180c9d26c866c25f03b1ab32134ac3e7f460866f019",
  "args": [],
  "numDeployments": 3,
  "solcInputHash": "0c77198ba93667d9aeceda43ebc34e2b",
  "bytecode": "0x608060405234801561001057600080fd5b50611c7a806100206000396000f3fe608060405234801561001057600080fd5b50600436106100885760003560e01c8063c75bb4f41161005b578063c75bb4f41461013b578063ca9022991461016b578063d8f9d14414610187578063dbe90617146101a357610088565b8063492e9e881461008d5780636057d21b146100bd578063965ac0c5146100ed578063a8630b3814610109575b600080fd5b6100a760048036038101906100a291906110b5565b6101d3565b6040516100b49190611117565b60405180910390f35b6100d760048036038101906100d291906110b5565b610359565b6040516100e49190611222565b60405180910390f35b61010760048036038101906101029190611270565b6104b5565b005b610123600480360381019061011e91906110b5565b6107be565b6040516101329392919061135a565b60405180910390f35b610155600480360381019061015091906113c4565b610991565b604051610162919061155c565b60405180910390f35b61018560048036038101906101809190611270565b610b21565b005b6101a1600480360381019061019c919061157e565b610ca2565b005b6101bd60048036038101906101b891906110b5565b610e35565b6040516101ca9190611689565b60405180910390f35b60008073ffffffffffffffffffffffffffffffffffffffff166000836040516101fc91906116e7565b908152602001604051809103902060010160009054906101000a900473ffffffffffffffffffffffffffffffffffffffff1673ffffffffffffffffffffffffffffffffffffffff1603610284576040517f08c379a000000000000000000000000000000000000000000000000000000000815260040161027b9061174a565b60405180910390fd5b600060018360405161029691906116e7565b90815260200160405180910390208054806020026020016040519081016040528092919081815260200182805480156102ee57602002820191906000526020600020905b8154815260200190600101908083116102da575b5050505050905060008151036103285760008360405161030e91906116e7565b908152602001604051809103902060020154915050610354565b80600182516103379190611799565b81518110610348576103476117cd565b5b60200260200101519150505b919050565b6060600073ffffffffffffffffffffffffffffffffffffffff1660008360405161038391906116e7565b908152602001604051809103902060010160009054906101000a900473ffffffffffffffffffffffffffffffffffffffff1673ffffffffffffffffffffffffffffffffffffffff160361040b576040517f08c379a00000000000000000000000000000000000000000000000000000000081526004016104029061174a565b60405180910390fd5b60028260405161041b91906116e7565b90815260200160405180910390208054806020026020016040519081016040528092919081815260200182805480156104a957602002820191906000526020600020905b8160009054906101000a900473ffffffffffffffffffffffffffffffffffffffff1673ffffffffffffffffffffffffffffffffffffffff168152602001906001019080831161045f575b50505050509050919050565b600073ffffffffffffffffffffffffffffffffffffffff166000836040516104dd91906116e7565b908152602001604051809103902060010160009054906101000a900473ffffffffffffffffffffffffffffffffffffffff1673ffffffffffffffffffffffffffffffffffffffff1614610565576040517f08c379a000000000000000000000000000000000000000000000000000000000815260040161055c90611848565b60405180910390fd5b600060405180606001604052808481526020013373ffffffffffffffffffffffffffffffffffffffff168152602001838152509050806000846040516105ab91906116e7565b908152602001604051809103902060008201518160000190816105ce9190611a74565b5060208201518160010160006101000a81548173ffffffffffffffffffffffffffffffffffffffff021916908373ffffffffffffffffffffffffffffffffffffffff1602179055506040820151816002015590505060018360405161063391906116e7565b908152602001604051809103902082908060018154018082558091505060019003906000526020600020016000909190919091505560028360405161067891906116e7565b9081526020016040518091039020339080600181540180825580915050600190039060005260206000200160009091909190916101000a81548173ffffffffffffffffffffffffffffffffffffffff021916908373ffffffffffffffffffffffffffffffffffffffff160217905550600360003373ffffffffffffffffffffffffffffffffffffffff1673ffffffffffffffffffffffffffffffffffffffff16815260200190815260200160002081908060018154018082558091505060019003906000526020600020906003020160009091909190915060008201518160000190816107659190611a74565b5060208201518160010160006101000a81548173ffffffffffffffffffffffffffffffffffffffff021916908373ffffffffffffffffffffffffffffffffffffffff160217905550604082015181600201555050505050565b6060600080600073ffffffffffffffffffffffffffffffffffffffff166000856040516107eb91906116e7565b908152602001604051809103902060010160009054906101000a900473ffffffffffffffffffffffffffffffffffffffff1673ffffffffffffffffffffffffffffffffffffffff1603610873576040517f08c379a000000000000000000000000000000000000000000000000000000000815260040161086a9061174a565b60405180910390fd5b60008460405161088391906116e7565b90815260200160405180910390206000016000856040516108a491906116e7565b908152602001604051809103902060010160009054906101000a900473ffffffffffffffffffffffffffffffffffffffff166000866040516108e691906116e7565b90815260200160405180910390206002015482805461090490611897565b80601f016020809104026020016040519081016040528092919081815260200182805461093090611897565b801561097d5780601f106109525761010080835404028352916020019161097d565b820191906000526020600020905b81548152906001019060200180831161096057829003601f168201915b505050505092509250925092509193909250565b6060600360008373ffffffffffffffffffffffffffffffffffffffff1673ffffffffffffffffffffffffffffffffffffffff168152602001908152602001600020805480602002602001604051908101604052809291908181526020016000905b82821015610b165783829060005260206000209060030201604051806060016040529081600082018054610a2590611897565b80601f0160208091040260200160405190810160405280929190818152602001828054610a5190611897565b8015610a9e5780601f10610a7357610100808354040283529160200191610a9e565b820191906000526020600020905b815481529060010190602001808311610a8157829003601f168201915b505050505081526020016001820160009054906101000a900473ffffffffffffffffffffffffffffffffffffffff1673ffffffffffffffffffffffffffffffffffffffff1673ffffffffffffffffffffffffffffffffffffffff168152602001600282015481525050815260200190600101906109f2565b505050509050919050565b3373ffffffffffffffffffffffffffffffffffffffff16600083604051610b4891906116e7565b908152602001604051809103902060010160009054906101000a900473ffffffffffffffffffffffffffffffffffffffff1673ffffffffffffffffffffffffffffffffffffffff1614610bd0576040517f08c379a0000000000000000000000000000000000000000000000000000000008152600401610bc790611b92565b60405180910390fd5b600082604051610be091906116e7565b9081526020016040518091039020600201548111610c33576040517f08c379a0000000000000000000000000000000000000000000000000000000008152600401610c2a90611c24565b60405180910390fd5b80600083604051610c4491906116e7565b908152602001604051809103902060020181905550600182604051610c6991906116e7565b90815260200160405180910390208190806001815401808255809150506001900390600052602060002001600090919091909150555050565b600073ffffffffffffffffffffffffffffffffffffffff16600083604051610cca91906116e7565b908152602001604051809103902060010160009054906101000a900473ffffffffffffffffffffffffffffffffffffffff1673ffffffffffffffffffffffffffffffffffffffff1603610d52576040517f08c379a0000000000000000000000000000000000000000000000000000000008152600401610d499061174a565b60405180910390fd5b80600083604051610d6391906116e7565b908152602001604051809103902060010160006101000a81548173ffffffffffffffffffffffffffffffffffffffff021916908373ffffffffffffffffffffffffffffffffffffffff160217905550600282604051610dc291906116e7565b9081526020016040518091039020819080600181540180825580915050600190039060005260206000200160009091909190916101000a81548173ffffffffffffffffffffffffffffffffffffffff021916908373ffffffffffffffffffffffffffffffffffffffff1602179055505050565b6060600073ffffffffffffffffffffffffffffffffffffffff16600083604051610e5f91906116e7565b908152602001604051809103902060010160009054906101000a900473ffffffffffffffffffffffffffffffffffffffff1673ffffffffffffffffffffffffffffffffffffffff1603610ee7576040517f08c379a0000000000000000000000000000000000000000000000000000000008152600401610ede9061174a565b60405180910390fd5b600182604051610ef791906116e7565b9081526020016040518091039020805480602002602001604051908101604052809291908181526020018280548015610f4f57602002820191906000526020600020905b815481526020019060010190808311610f3b575b50505050509050919050565b6000604051905090565b600080fd5b600080fd5b600080fd5b600080fd5b6000601f19601f8301169050919050565b7f4e487b7100000000000000000000000000000000000000000000000000000000600052604160045260246000fd5b610fc282610f79565b810181811067ffffffffffffffff82111715610fe157610fe0610f8a565b5b80604052505050565b6000610ff4610f5b565b90506110008282610fb9565b919050565b600067ffffffffffffffff8211156110205761101f610f8a565b5b61102982610f79565b9050602081019050919050565b82818337600083830152505050565b600061105861105384611005565b610fea565b90508281526020810184848401111561107457611073610f74565b5b61107f848285611036565b509392505050565b600082601f83011261109c5761109b610f6f565b5b81356110ac848260208601611045565b91505092915050565b6000602082840312156110cb576110ca610f65565b5b600082013567ffffffffffffffff8111156110e9576110e8610f6a565b5b6110f584828501611087565b91505092915050565b6000819050919050565b611111816110fe565b82525050565b600060208201905061112c6000830184611108565b92915050565b600081519050919050565b600082825260208201905092915050565b6000819050602082019050919050565b600073ffffffffffffffffffffffffffffffffffffffff82169050919050565b60006111898261115e565b9050919050565b6111998161117e565b82525050565b60006111ab8383611190565b60208301905092915050565b6000602082019050919050565b60006111cf82611132565b6111d9818561113d565b93506111e48361114e565b8060005b838110156112155781516111fc888261119f565b9750611207836111b7565b9250506001810190506111e8565b5085935050505092915050565b6000602082019050818103600083015261123c81846111c4565b905092915050565b61124d816110fe565b811461125857600080fd5b50565b60008135905061126a81611244565b92915050565b6000806040838503121561128757611286610f65565b5b600083013567ffffffffffffffff8111156112a5576112a4610f6a565b5b6112b185828601611087565b92505060206112c28582860161125b565b9150509250929050565b600081519050919050565b600082825260208201905092915050565b60005b838110156113065780820151818401526020810190506112eb565b60008484015250505050565b600061131d826112cc565b61132781856112d7565b93506113378185602086016112e8565b61134081610f79565b840191505092915050565b6113548161117e565b82525050565b600060608201905081810360008301526113748186611312565b9050611383602083018561134b565b6113906040830184611108565b949350505050565b6113a18161117e565b81146113ac57600080fd5b50565b6000813590506113be81611398565b92915050565b6000602082840312156113da576113d9610f65565b5b60006113e8848285016113af565b91505092915050565b600081519050919050565b600082825260208201905092915050565b6000819050602082019050919050565b600082825260208201905092915050565b6000611439826112cc565b611443818561141d565b93506114538185602086016112e8565b61145c81610f79565b840191505092915050565b611470816110fe565b82525050565b60006060830160008301518482036000860152611493828261142e565b91505060208301516114a86020860182611190565b5060408301516114bb6040860182611467565b508091505092915050565b60006114d28383611476565b905092915050565b6000602082019050919050565b60006114f2826113f1565b6114fc81856113fc565b93508360208202850161150e8561140d565b8060005b8581101561154a578484038952815161152b85826114c6565b9450611536836114da565b925060208a01995050600181019050611512565b50829750879550505050505092915050565b6000602082019050818103600083015261157681846114e7565b905092915050565b6000806040838503121561159557611594610f65565b5b600083013567ffffffffffffffff8111156115b3576115b2610f6a565b5b6115bf85828601611087565b92505060206115d0858286016113af565b9150509250929050565b600081519050919050565b600082825260208201905092915050565b6000819050602082019050919050565b60006116128383611467565b60208301905092915050565b6000602082019050919050565b6000611636826115da565b61164081856115e5565b935061164b836115f6565b8060005b8381101561167c5781516116638882611606565b975061166e8361161e565b92505060018101905061164f565b5085935050505092915050565b600060208201905081810360008301526116a3818461162b565b905092915050565b600081905092915050565b60006116c1826112cc565b6116cb81856116ab565b93506116db8185602086016112e8565b80840191505092915050565b60006116f382846116b6565b915081905092915050565b7f436172206e6f7420666f756e6400000000000000000000000000000000000000600082015250565b6000611734600d836112d7565b915061173f826116fe565b602082019050919050565b6000602082019050818103600083015261176381611727565b9050919050565b7f4e487b7100000000000000000000000000000000000000000000000000000000600052601160045260246000fd5b60006117a4826110fe565b91506117af836110fe565b92508282039050818111156117c7576117c661176a565b5b92915050565b7f4e487b7100000000000000000000000000000000000000000000000000000000600052603260045260246000fd5b7f43617220616c7265616479206578697374730000000000000000000000000000600082015250565b60006118326012836112d7565b915061183d826117fc565b602082019050919050565b6000602082019050818103600083015261186181611825565b9050919050565b7f4e487b7100000000000000000000000000000000000000000000000000000000600052602260045260246000fd5b600060028204905060018216806118af57607f821691505b6020821081036118c2576118c1611868565b5b50919050565b60008190508160005260206000209050919050565b60006020601f8301049050919050565b600082821b905092915050565b60006008830261192a7fffffffffffffffffffffffffffffffffffffffffffffffffffffffffffffffff826118ed565b61193486836118ed565b95508019841693508086168417925050509392505050565b6000819050919050565b600061197161196c611967846110fe565b61194c565b6110fe565b9050919050565b6000819050919050565b61198b83611956565b61199f61199782611978565b8484546118fa565b825550505050565b600090565b6119b46119a7565b6119bf818484611982565b505050565b5b818110156119e3576119d86000826119ac565b6001810190506119c5565b5050565b601f821115611a28576119f9816118c8565b611a02846118dd565b81016020851015611a11578190505b611a25611a1d856118dd565b8301826119c4565b50505b505050565b600082821c905092915050565b6000611a4b60001984600802611a2d565b1980831691505092915050565b6000611a648383611a3a565b9150826002028217905092915050565b611a7d826112cc565b67ffffffffffffffff811115611a9657611a95610f8a565b5b611aa08254611897565b611aab8282856119e7565b600060209050601f831160018114611ade5760008415611acc578287015190505b611ad68582611a58565b865550611b3e565b601f198416611aec866118c8565b60005b82811015611b1457848901518255600182019150602085019450602081019050611aef565b86831015611b315784890151611b2d601f891682611a3a565b8355505b6001600288020188555050505b505050505050565b7f596f7520646f206e6f74206f776e207468697320636172000000000000000000600082015250565b6000611b7c6017836112d7565b9150611b8782611b46565b602082019050919050565b60006020820190508181036000830152611bab81611b6f565b9050919050565b7f4e6577206d696c65616765206d7573742062652067726561746572207468616e60008201527f2063757272656e74206d696c6561676500000000000000000000000000000000602082015250565b6000611c0e6030836112d7565b9150611c1982611bb2565b604082019050919050565b60006020820190508181036000830152611c3d81611c01565b905091905056fea264697066735822122014c1cc0ef88c8bdb9a843bacde1fda9da8e0b5ebceea82344beee8082842235564736f6c63430008120033",
  "devdoc": {
    "kind": "dev",
    "methods": {},
    "version": 1
  },
  "userdoc": {
    "kind": "user",
    "methods": {},
    "version": 1
  },
  "storageLayout": {
    "storage": [
      {
        "astId": 13,
        "contract": "contracts/TrueMile.sol:TrueMile",
        "label": "carsByLicensePlate",
        "offset": 0,
        "slot": "0",
        "type": "t_mapping(t_string_memory_ptr,t_struct(Car)8_storage)"
      },
      {
        "astId": 18,
        "contract": "contracts/TrueMile.sol:TrueMile",
        "label": "mileageRecords",
        "offset": 0,
        "slot": "1",
        "type": "t_mapping(t_string_memory_ptr,t_array(t_uint256)dyn_storage)"
      },
      {
        "astId": 23,
        "contract": "contracts/TrueMile.sol:TrueMile",
        "label": "ownersByLicensePlate",
        "offset": 0,
        "slot": "2",
        "type": "t_mapping(t_string_memory_ptr,t_array(t_address)dyn_storage)"
      },
      {
        "astId": 29,
        "contract": "contracts/TrueMile.sol:TrueMile",
        "label": "carsByOwner",
        "offset": 0,
        "slot": "3",
        "type": "t_mapping(t_address,t_array(t_struct(Car)8_storage)dyn_storage)"
      }
    ],
    "types": {
      "t_address": {
        "encoding": "inplace",
        "label": "address",
        "numberOfBytes": "20"
      },
      "t_array(t_address)dyn_storage": {
        "base": "t_address",
        "encoding": "dynamic_array",
        "label": "address[]",
        "numberOfBytes": "32"
      },
      "t_array(t_struct(Car)8_storage)dyn_storage": {
        "base": "t_struct(Car)8_storage",
        "encoding": "dynamic_array",
        "label": "struct TrueMile.Car[]",
        "numberOfBytes": "32"
      },
      "t_array(t_uint256)dyn_storage": {
        "base": "t_uint256",
        "encoding": "dynamic_array",
        "label": "uint256[]",
        "numberOfBytes": "32"
      },
      "t_mapping(t_address,t_array(t_struct(Car)8_storage)dyn_storage)": {
        "encoding": "mapping",
        "key": "t_address",
        "label": "mapping(address => struct TrueMile.Car[])",
        "numberOfBytes": "32",
        "value": "t_array(t_struct(Car)8_storage)dyn_storage"
      },
      "t_mapping(t_string_memory_ptr,t_array(t_address)dyn_storage)": {
        "encoding": "mapping",
        "key": "t_string_memory_ptr",
        "label": "mapping(string => address[])",
        "numberOfBytes": "32",
        "value": "t_array(t_address)dyn_storage"
      },
      "t_mapping(t_string_memory_ptr,t_array(t_uint256)dyn_storage)": {
        "encoding": "mapping",
        "key": "t_string_memory_ptr",
        "label": "mapping(string => uint256[])",
        "numberOfBytes": "32",
        "value": "t_array(t_uint256)dyn_storage"
      },
      "t_mapping(t_string_memory_ptr,t_struct(Car)8_storage)": {
        "encoding": "mapping",
        "key": "t_string_memory_ptr",
        "label": "mapping(string => struct TrueMile.Car)",
        "numberOfBytes": "32",
        "value": "t_struct(Car)8_storage"
      },
      "t_string_memory_ptr": {
        "encoding": "bytes",
        "label": "string",
        "numberOfBytes": "32"
      },
      "t_string_storage": {
        "encoding": "bytes",
        "label": "string",
        "numberOfBytes": "32"
      },
      "t_struct(Car)8_storage": {
        "encoding": "inplace",
        "label": "struct TrueMile.Car",
        "members": [
          {
            "astId": 3,
            "contract": "contracts/TrueMile.sol:TrueMile",
            "label": "licensePlate",
            "offset": 0,
            "slot": "0",
            "type": "t_string_storage"
          },
          {
            "astId": 5,
            "contract": "contracts/TrueMile.sol:TrueMile",
            "label": "owner",
            "offset": 0,
            "slot": "1",
            "type": "t_address"
          },
          {
            "astId": 7,
            "contract": "contracts/TrueMile.sol:TrueMile",
            "label": "mileage",
            "offset": 0,
            "slot": "2",
            "type": "t_uint256"
          }
        ],
        "numberOfBytes": "96"
      },
      "t_uint256": {
        "encoding": "inplace",
        "label": "uint256",
        "numberOfBytes": "32"
      }
    }
  }
}